{
  "_format": "hh-sol-artifact-1",
  "contractName": "VRFCoordinatorV2_5Mock",
  "sourceName": "@chainlink/contracts/src/v0.8/vrf/mocks/VRFCoordinatorV2_5Mock.sol",
  "abi": [
    {
      "inputs": [
        {
          "internalType": "uint96",
          "name": "_baseFee",
          "type": "uint96"
        },
        {
          "internalType": "uint96",
          "name": "_gasPrice",
          "type": "uint96"
        },
        {
          "internalType": "int256",
          "name": "_weiPerUnitLink",
          "type": "int256"
        }
      ],
      "stateMutability": "nonpayable",
      "type": "constructor"
    },
    {
      "inputs": [
        {
          "internalType": "uint256",
          "name": "internalBalance",
          "type": "uint256"
        },
        {
          "internalType": "uint256",
          "name": "externalBalance",
          "type": "uint256"
        }
      ],
      "name": "BalanceInvariantViolated",
      "type": "error"
    },
    {
      "inputs": [],
      "name": "FailedToSendNative",
      "type": "error"
    },
    {
      "inputs": [],
      "name": "FailedToTransferLink",
      "type": "error"
    },
    {
      "inputs": [],
      "name": "IndexOutOfRange",
      "type": "error"
    },
    {
      "inputs": [],
      "name": "InsufficientBalance",
      "type": "error"
    },
    {
      "inputs": [],
      "name": "InvalidCalldata",
      "type": "error"
    },
    {
      "inputs": [
        {
          "internalType": "uint256",
          "name": "subId",
          "type": "uint256"
        },
        {
          "internalType": "address",
          "name": "consumer",
          "type": "address"
        }
      ],
      "name": "InvalidConsumer",
      "type": "error"
    },
    {
      "inputs": [],
      "name": "InvalidExtraArgsTag",
      "type": "error"
    },
    {
      "inputs": [],
      "name": "InvalidRandomWords",
      "type": "error"
    },
    {
      "inputs": [],
      "name": "InvalidRequest",
      "type": "error"
    },
    {
      "inputs": [],
      "name": "InvalidSubscription",
      "type": "error"
    },
    {
      "inputs": [],
      "name": "LinkAlreadySet",
      "type": "error"
    },
    {
      "inputs": [],
      "name": "LinkNotSet",
      "type": "error"
    },
    {
      "inputs": [
        {
          "internalType": "address",
          "name": "proposedOwner",
          "type": "address"
        }
      ],
      "name": "MustBeRequestedOwner",
      "type": "error"
    },
    {
      "inputs": [
        {
          "internalType": "address",
          "name": "owner",
          "type": "address"
        }
      ],
      "name": "MustBeSubOwner",
      "type": "error"
    },
    {
      "inputs": [],
      "name": "NotImplemented",
      "type": "error"
    },
    {
      "inputs": [],
      "name": "OnlyCallableFromLink",
      "type": "error"
    },
    {
      "inputs": [],
      "name": "PendingRequestExists",
      "type": "error"
    },
    {
      "inputs": [],
      "name": "Reentrant",
      "type": "error"
    },
    {
      "inputs": [],
      "name": "TooManyConsumers",
      "type": "error"
    },
    {
      "anonymous": false,
      "inputs": [],
      "name": "ConfigSet",
      "type": "event"
    },
    {
      "anonymous": false,
      "inputs": [
        {
          "indexed": false,
          "internalType": "address",
          "name": "to",
          "type": "address"
        },
        {
          "indexed": false,
          "internalType": "uint256",
          "name": "amount",
          "type": "uint256"
        }
      ],
      "name": "FundsRecovered",
      "type": "event"
    },
    {
      "anonymous": false,
      "inputs": [
        {
          "indexed": false,
          "internalType": "address",
          "name": "to",
          "type": "address"
        },
        {
          "indexed": false,
          "internalType": "uint256",
          "name": "amount",
          "type": "uint256"
        }
      ],
      "name": "NativeFundsRecovered",
      "type": "event"
    },
    {
      "anonymous": false,
      "inputs": [
        {
          "indexed": true,
          "internalType": "address",
          "name": "from",
          "type": "address"
        },
        {
          "indexed": true,
          "internalType": "address",
          "name": "to",
          "type": "address"
        }
      ],
      "name": "OwnershipTransferRequested",
      "type": "event"
    },
    {
      "anonymous": false,
      "inputs": [
        {
          "indexed": true,
          "internalType": "address",
          "name": "from",
          "type": "address"
        },
        {
          "indexed": true,
          "internalType": "address",
          "name": "to",
          "type": "address"
        }
      ],
      "name": "OwnershipTransferred",
      "type": "event"
    },
    {
      "anonymous": false,
      "inputs": [
        {
          "indexed": true,
          "internalType": "uint256",
          "name": "requestId",
          "type": "uint256"
        },
        {
          "indexed": false,
          "internalType": "uint256",
          "name": "outputSeed",
          "type": "uint256"
        },
        {
          "indexed": true,
          "internalType": "uint256",
          "name": "subId",
          "type": "uint256"
        },
        {
          "indexed": false,
          "internalType": "uint96",
          "name": "payment",
          "type": "uint96"
        },
        {
          "indexed": false,
          "internalType": "bool",
          "name": "nativePayment",
          "type": "bool"
        },
        {
          "indexed": false,
          "internalType": "bool",
          "name": "success",
          "type": "bool"
        },
        {
          "indexed": false,
          "internalType": "bool",
          "name": "onlyPremium",
          "type": "bool"
        }
      ],
      "name": "RandomWordsFulfilled",
      "type": "event"
    },
    {
      "anonymous": false,
      "inputs": [
        {
          "indexed": true,
          "internalType": "bytes32",
          "name": "keyHash",
          "type": "bytes32"
        },
        {
          "indexed": false,
          "internalType": "uint256",
          "name": "requestId",
          "type": "uint256"
        },
        {
          "indexed": false,
          "internalType": "uint256",
          "name": "preSeed",
          "type": "uint256"
        },
        {
          "indexed": true,
          "internalType": "uint256",
          "name": "subId",
          "type": "uint256"
        },
        {
          "indexed": false,
          "internalType": "uint16",
          "name": "minimumRequestConfirmations",
          "type": "uint16"
        },
        {
          "indexed": false,
          "internalType": "uint32",
          "name": "callbackGasLimit",
          "type": "uint32"
        },
        {
          "indexed": false,
          "internalType": "uint32",
          "name": "numWords",
          "type": "uint32"
        },
        {
          "indexed": false,
          "internalType": "bytes",
          "name": "extraArgs",
          "type": "bytes"
        },
        {
          "indexed": true,
          "internalType": "address",
          "name": "sender",
          "type": "address"
        }
      ],
      "name": "RandomWordsRequested",
      "type": "event"
    },
    {
      "anonymous": false,
      "inputs": [
        {
          "indexed": true,
          "internalType": "uint256",
          "name": "subId",
          "type": "uint256"
        },
        {
          "indexed": false,
          "internalType": "address",
          "name": "to",
          "type": "address"
        },
        {
          "indexed": false,
          "internalType": "uint256",
          "name": "amountLink",
          "type": "uint256"
        },
        {
          "indexed": false,
          "internalType": "uint256",
          "name": "amountNative",
          "type": "uint256"
        }
      ],
      "name": "SubscriptionCanceled",
      "type": "event"
    },
    {
      "anonymous": false,
      "inputs": [
        {
          "indexed": true,
          "internalType": "uint256",
          "name": "subId",
          "type": "uint256"
        },
        {
          "indexed": false,
          "internalType": "address",
          "name": "consumer",
          "type": "address"
        }
      ],
      "name": "SubscriptionConsumerAdded",
      "type": "event"
    },
    {
      "anonymous": false,
      "inputs": [
        {
          "indexed": true,
          "internalType": "uint256",
          "name": "subId",
          "type": "uint256"
        },
        {
          "indexed": false,
          "internalType": "address",
          "name": "consumer",
          "type": "address"
        }
      ],
      "name": "SubscriptionConsumerRemoved",
      "type": "event"
    },
    {
      "anonymous": false,
      "inputs": [
        {
          "indexed": true,
          "internalType": "uint256",
          "name": "subId",
          "type": "uint256"
        },
        {
          "indexed": false,
          "internalType": "address",
          "name": "owner",
          "type": "address"
        }
      ],
      "name": "SubscriptionCreated",
      "type": "event"
    },
    {
      "anonymous": false,
      "inputs": [
        {
          "indexed": true,
          "internalType": "uint256",
          "name": "subId",
          "type": "uint256"
        },
        {
          "indexed": false,
          "internalType": "uint256",
          "name": "oldBalance",
          "type": "uint256"
        },
        {
          "indexed": false,
          "internalType": "uint256",
          "name": "newBalance",
          "type": "uint256"
        }
      ],
      "name": "SubscriptionFunded",
      "type": "event"
    },
    {
      "anonymous": false,
      "inputs": [
        {
          "indexed": true,
          "internalType": "uint256",
          "name": "subId",
          "type": "uint256"
        },
        {
          "indexed": false,
          "internalType": "uint256",
          "name": "oldNativeBalance",
          "type": "uint256"
        },
        {
          "indexed": false,
          "internalType": "uint256",
          "name": "newNativeBalance",
          "type": "uint256"
        }
      ],
      "name": "SubscriptionFundedWithNative",
      "type": "event"
    },
    {
      "anonymous": false,
      "inputs": [
        {
          "indexed": true,
          "internalType": "uint256",
          "name": "subId",
          "type": "uint256"
        },
        {
          "indexed": false,
          "internalType": "address",
          "name": "from",
          "type": "address"
        },
        {
          "indexed": false,
          "internalType": "address",
          "name": "to",
          "type": "address"
        }
      ],
      "name": "SubscriptionOwnerTransferRequested",
      "type": "event"
    },
    {
      "anonymous": false,
      "inputs": [
        {
          "indexed": true,
          "internalType": "uint256",
          "name": "subId",
          "type": "uint256"
        },
        {
          "indexed": false,
          "internalType": "address",
          "name": "from",
          "type": "address"
        },
        {
          "indexed": false,
          "internalType": "address",
          "name": "to",
          "type": "address"
        }
      ],
      "name": "SubscriptionOwnerTransferred",
      "type": "event"
    },
    {
      "inputs": [],
      "name": "LINK",
      "outputs": [
        {
          "internalType": "contract LinkTokenInterface",
          "name": "",
          "type": "address"
        }
      ],
      "stateMutability": "view",
      "type": "function"
    },
    {
      "inputs": [],
      "name": "LINK_NATIVE_FEED",
      "outputs": [
        {
          "internalType": "contract AggregatorV3Interface",
          "name": "",
          "type": "address"
        }
      ],
      "stateMutability": "view",
      "type": "function"
    },
    {
      "inputs": [],
      "name": "MAX_CONSUMERS",
      "outputs": [
        {
          "internalType": "uint16",
          "name": "",
          "type": "uint16"
        }
      ],
      "stateMutability": "view",
      "type": "function"
    },
    {
      "inputs": [],
      "name": "acceptOwnership",
      "outputs": [],
      "stateMutability": "nonpayable",
      "type": "function"
    },
    {
      "inputs": [
        {
          "internalType": "uint256",
          "name": "subId",
          "type": "uint256"
        }
      ],
      "name": "acceptSubscriptionOwnerTransfer",
      "outputs": [],
      "stateMutability": "nonpayable",
      "type": "function"
    },
    {
      "inputs": [
        {
          "internalType": "uint256",
          "name": "subId",
          "type": "uint256"
        },
        {
          "internalType": "address",
          "name": "consumer",
          "type": "address"
        }
      ],
      "name": "addConsumer",
      "outputs": [],
      "stateMutability": "nonpayable",
      "type": "function"
    },
    {
      "inputs": [
        {
          "internalType": "uint256",
          "name": "_subId",
          "type": "uint256"
        },
        {
          "internalType": "address",
          "name": "_to",
          "type": "address"
        }
      ],
      "name": "cancelSubscription",
      "outputs": [],
      "stateMutability": "nonpayable",
      "type": "function"
    },
    {
      "inputs": [
        {
          "internalType": "uint256",
          "name": "_subId",
          "type": "uint256"
        },
        {
          "internalType": "address",
          "name": "_consumer",
          "type": "address"
        }
      ],
      "name": "consumerIsAdded",
      "outputs": [
        {
          "internalType": "bool",
          "name": "",
          "type": "bool"
        }
      ],
      "stateMutability": "view",
      "type": "function"
    },
    {
      "inputs": [],
      "name": "createSubscription",
      "outputs": [
        {
          "internalType": "uint256",
          "name": "subId",
          "type": "uint256"
        }
      ],
      "stateMutability": "nonpayable",
      "type": "function"
    },
    {
      "inputs": [
        {
          "internalType": "uint256",
          "name": "_requestId",
          "type": "uint256"
        },
        {
          "internalType": "address",
          "name": "_consumer",
          "type": "address"
        }
      ],
      "name": "fulfillRandomWords",
      "outputs": [],
      "stateMutability": "nonpayable",
      "type": "function"
    },
    {
      "inputs": [
        {
          "internalType": "uint256",
          "name": "_requestId",
          "type": "uint256"
        },
        {
          "internalType": "address",
          "name": "_consumer",
          "type": "address"
        },
        {
          "internalType": "uint256[]",
          "name": "_words",
          "type": "uint256[]"
        }
      ],
      "name": "fulfillRandomWordsWithOverride",
      "outputs": [],
      "stateMutability": "nonpayable",
      "type": "function"
    },
    {
      "inputs": [
        {
          "internalType": "uint256",
          "name": "_subId",
          "type": "uint256"
        },
        {
          "internalType": "uint256",
          "name": "_amount",
          "type": "uint256"
        }
      ],
      "name": "fundSubscription",
      "outputs": [],
      "stateMutability": "nonpayable",
      "type": "function"
    },
    {
      "inputs": [
        {
          "internalType": "uint256",
          "name": "subId",
          "type": "uint256"
        }
      ],
      "name": "fundSubscriptionWithNative",
      "outputs": [],
      "stateMutability": "payable",
      "type": "function"
    },
    {
      "inputs": [
        {
          "internalType": "uint256",
          "name": "startIndex",
          "type": "uint256"
        },
        {
          "internalType": "uint256",
          "name": "maxCount",
          "type": "uint256"
        }
      ],
      "name": "getActiveSubscriptionIds",
      "outputs": [
        {
          "internalType": "uint256[]",
          "name": "ids",
          "type": "uint256[]"
        }
      ],
      "stateMutability": "view",
      "type": "function"
    },
    {
      "inputs": [
        {
          "internalType": "uint256",
          "name": "subId",
          "type": "uint256"
        }
      ],
      "name": "getSubscription",
      "outputs": [
        {
          "internalType": "uint96",
          "name": "balance",
          "type": "uint96"
        },
        {
          "internalType": "uint96",
          "name": "nativeBalance",
          "type": "uint96"
        },
        {
          "internalType": "uint64",
          "name": "reqCount",
          "type": "uint64"
        },
        {
          "internalType": "address",
          "name": "subOwner",
          "type": "address"
        },
        {
          "internalType": "address[]",
          "name": "consumers",
          "type": "address[]"
        }
      ],
      "stateMutability": "view",
      "type": "function"
    },
    {
      "inputs": [],
      "name": "i_base_fee",
      "outputs": [
        {
          "internalType": "uint96",
          "name": "",
          "type": "uint96"
        }
      ],
      "stateMutability": "view",
      "type": "function"
    },
    {
      "inputs": [],
      "name": "i_gas_price",
      "outputs": [
        {
          "internalType": "uint96",
          "name": "",
          "type": "uint96"
        }
      ],
      "stateMutability": "view",
      "type": "function"
    },
    {
      "inputs": [],
      "name": "i_wei_per_unit_link",
      "outputs": [
        {
          "internalType": "int256",
          "name": "",
          "type": "int256"
        }
      ],
      "stateMutability": "view",
      "type": "function"
    },
    {
      "inputs": [
        {
          "internalType": "address",
          "name": "",
          "type": "address"
        },
        {
          "internalType": "uint256",
          "name": "amount",
          "type": "uint256"
        },
        {
          "internalType": "bytes",
          "name": "data",
          "type": "bytes"
        }
      ],
      "name": "onTokenTransfer",
      "outputs": [],
      "stateMutability": "nonpayable",
      "type": "function"
    },
    {
      "inputs": [],
      "name": "owner",
      "outputs": [
        {
          "internalType": "address",
          "name": "",
          "type": "address"
        }
      ],
      "stateMutability": "view",
      "type": "function"
    },
    {
      "inputs": [
        {
          "internalType": "uint256",
          "name": "subId",
          "type": "uint256"
        }
      ],
      "name": "ownerCancelSubscription",
      "outputs": [],
      "stateMutability": "nonpayable",
      "type": "function"
    },
    {
      "inputs": [
        {
          "internalType": "uint256",
          "name": "",
          "type": "uint256"
        }
      ],
      "name": "pendingRequestExists",
      "outputs": [
        {
          "internalType": "bool",
          "name": "",
          "type": "bool"
        }
      ],
      "stateMutability": "pure",
      "type": "function"
    },
    {
      "inputs": [
        {
          "internalType": "address",
          "name": "to",
          "type": "address"
        }
      ],
      "name": "recoverFunds",
      "outputs": [],
      "stateMutability": "nonpayable",
      "type": "function"
    },
    {
      "inputs": [
        {
          "internalType": "address payable",
          "name": "to",
          "type": "address"
        }
      ],
      "name": "recoverNativeFunds",
      "outputs": [],
      "stateMutability": "nonpayable",
      "type": "function"
    },
    {
      "inputs": [
        {
          "internalType": "uint256",
          "name": "_subId",
          "type": "uint256"
        },
        {
          "internalType": "address",
          "name": "_consumer",
          "type": "address"
        }
      ],
      "name": "removeConsumer",
      "outputs": [],
      "stateMutability": "nonpayable",
      "type": "function"
    },
    {
      "inputs": [
        {
          "components": [
            {
              "internalType": "bytes32",
              "name": "keyHash",
              "type": "bytes32"
            },
            {
              "internalType": "uint256",
              "name": "subId",
              "type": "uint256"
            },
            {
              "internalType": "uint16",
              "name": "requestConfirmations",
              "type": "uint16"
            },
            {
              "internalType": "uint32",
              "name": "callbackGasLimit",
              "type": "uint32"
            },
            {
              "internalType": "uint32",
              "name": "numWords",
              "type": "uint32"
            },
            {
              "internalType": "bytes",
              "name": "extraArgs",
              "type": "bytes"
            }
          ],
          "internalType": "struct VRFV2PlusClient.RandomWordsRequest",
          "name": "_req",
          "type": "tuple"
        }
      ],
      "name": "requestRandomWords",
      "outputs": [
        {
          "internalType": "uint256",
          "name": "",
          "type": "uint256"
        }
      ],
      "stateMutability": "nonpayable",
      "type": "function"
    },
    {
      "inputs": [
        {
          "internalType": "uint256",
          "name": "subId",
          "type": "uint256"
        },
        {
          "internalType": "address",
          "name": "newOwner",
          "type": "address"
        }
      ],
      "name": "requestSubscriptionOwnerTransfer",
      "outputs": [],
      "stateMutability": "nonpayable",
      "type": "function"
    },
    {
      "inputs": [],
      "name": "s_config",
      "outputs": [
        {
          "internalType": "uint16",
          "name": "minimumRequestConfirmations",
          "type": "uint16"
        },
        {
          "internalType": "uint32",
          "name": "maxGasLimit",
          "type": "uint32"
        },
        {
          "internalType": "bool",
          "name": "reentrancyLock",
          "type": "bool"
        },
        {
          "internalType": "uint32",
          "name": "stalenessSeconds",
          "type": "uint32"
        },
        {
          "internalType": "uint32",
          "name": "gasAfterPaymentCalculation",
          "type": "uint32"
        },
        {
          "internalType": "uint32",
          "name": "fulfillmentFlatFeeNativePPM",
          "type": "uint32"
        },
        {
          "internalType": "uint32",
          "name": "fulfillmentFlatFeeLinkDiscountPPM",
          "type": "uint32"
        },
        {
          "internalType": "uint8",
          "name": "nativePremiumPercentage",
          "type": "uint8"
        },
        {
          "internalType": "uint8",
          "name": "linkPremiumPercentage",
          "type": "uint8"
        }
      ],
      "stateMutability": "view",
      "type": "function"
    },
    {
      "inputs": [],
      "name": "s_currentSubNonce",
      "outputs": [
        {
          "internalType": "uint64",
          "name": "",
          "type": "uint64"
        }
      ],
      "stateMutability": "view",
      "type": "function"
    },
    {
      "inputs": [],
      "name": "s_totalBalance",
      "outputs": [
        {
          "internalType": "uint96",
          "name": "",
          "type": "uint96"
        }
      ],
      "stateMutability": "view",
      "type": "function"
    },
    {
      "inputs": [],
      "name": "s_totalNativeBalance",
      "outputs": [
        {
          "internalType": "uint96",
          "name": "",
          "type": "uint96"
        }
      ],
      "stateMutability": "view",
      "type": "function"
    },
    {
      "inputs": [],
      "name": "setConfig",
      "outputs": [],
      "stateMutability": "nonpayable",
      "type": "function"
    },
    {
      "inputs": [
        {
          "internalType": "address",
          "name": "link",
          "type": "address"
        },
        {
          "internalType": "address",
          "name": "linkNativeFeed",
          "type": "address"
        }
      ],
      "name": "setLINKAndLINKNativeFeed",
      "outputs": [],
      "stateMutability": "nonpayable",
      "type": "function"
    },
    {
      "inputs": [
        {
          "internalType": "address",
          "name": "to",
          "type": "address"
        }
      ],
      "name": "transferOwnership",
      "outputs": [],
      "stateMutability": "nonpayable",
      "type": "function"
    },
    {
      "inputs": [
        {
          "internalType": "address",
          "name": "recipient",
          "type": "address"
        }
      ],
      "name": "withdraw",
      "outputs": [],
      "stateMutability": "nonpayable",
      "type": "function"
    },
    {
      "inputs": [
        {
          "internalType": "address payable",
          "name": "recipient",
          "type": "address"
        }
      ],
      "name": "withdrawNative",
      "outputs": [],
      "stateMutability": "nonpayable",
      "type": "function"
    }
  ],
  "bytecode": "0x60e06040526001600e556064600f553480156200001b57600080fd5b5060405162006448380380620064488339818101604052810190620000419190620005f3565b338060008073ffffffffffffffffffffffffffffffffffffffff168273ffffffffffffffffffffffffffffffffffffffff1603620000b6576040517f08c379a0000000000000000000000000000000000000000000000000000000008152600401620000ad90620006b0565b60405180910390fd5b816000806101000a81548173ffffffffffffffffffffffffffffffffffffffff021916908373ffffffffffffffffffffffffffffffffffffffff160217905550600073ffffffffffffffffffffffffffffffffffffffff168173ffffffffffffffffffffffffffffffffffffffff16146200013d576200013c81620001a960201b60201c565b5b505050826bffffffffffffffffffffffff166080816bffffffffffffffffffffffff1681525050816bffffffffffffffffffffffff1660a0816bffffffffffffffffffffffff16815250508060c08181525050620001a0620002d860201b60201c565b505050620007b6565b3373ffffffffffffffffffffffffffffffffffffffff168173ffffffffffffffffffffffffffffffffffffffff16036200021a576040517f08c379a0000000000000000000000000000000000000000000000000000000008152600401620002119062000722565b60405180910390fd5b80600160006101000a81548173ffffffffffffffffffffffffffffffffffffffff021916908373ffffffffffffffffffffffffffffffffffffffff1602179055508073ffffffffffffffffffffffffffffffffffffffff1660008054906101000a900473ffffffffffffffffffffffffffffffffffffffff1673ffffffffffffffffffffffffffffffffffffffff167fed8889f560326eb138920d842192f0eb3dd22b4f139c87a2c57538e05bae127860405160405180910390a350565b620002e8620004d760201b60201c565b604051806101200160405280600061ffff168152602001600063ffffffff168152602001600015158152602001600063ffffffff168152602001600063ffffffff168152602001600063ffffffff168152602001600063ffffffff168152602001600060ff168152602001600060ff16815250600c60008201518160000160006101000a81548161ffff021916908361ffff16021790555060208201518160000160026101000a81548163ffffffff021916908363ffffffff16021790555060408201518160000160066101000a81548160ff02191690831515021790555060608201518160000160076101000a81548163ffffffff021916908363ffffffff160217905550608082015181600001600b6101000a81548163ffffffff021916908363ffffffff16021790555060a082015181600001600f6101000a81548163ffffffff021916908363ffffffff16021790555060c08201518160000160136101000a81548163ffffffff021916908363ffffffff16021790555060e08201518160000160176101000a81548160ff021916908360ff1602179055506101008201518160000160186101000a81548160ff021916908360ff1602179055509050507f4b2974a542484cba2783812ff8033f7fc682cac2fe0905c28c5e27869b3155be60405160405180910390a1565b60008054906101000a900473ffffffffffffffffffffffffffffffffffffffff1673ffffffffffffffffffffffffffffffffffffffff163373ffffffffffffffffffffffffffffffffffffffff161462000568576040517f08c379a00000000000000000000000000000000000000000000000000000000081526004016200055f9062000794565b60405180910390fd5b565b600080fd5b60006bffffffffffffffffffffffff82169050919050565b62000592816200056f565b81146200059e57600080fd5b50565b600081519050620005b28162000587565b92915050565b6000819050919050565b620005cd81620005b8565b8114620005d957600080fd5b50565b600081519050620005ed81620005c2565b92915050565b6000806000606084860312156200060f576200060e6200056a565b5b60006200061f86828701620005a1565b93505060206200063286828701620005a1565b92505060406200064586828701620005dc565b9150509250925092565b600082825260208201905092915050565b7f43616e6e6f7420736574206f776e657220746f207a65726f0000000000000000600082015250565b6000620006986018836200064f565b9150620006a58262000660565b602082019050919050565b60006020820190508181036000830152620006cb8162000689565b9050919050565b7f43616e6e6f74207472616e7366657220746f2073656c66000000000000000000600082015250565b60006200070a6017836200064f565b91506200071782620006d2565b602082019050919050565b600060208201905081810360008301526200073d81620006fb565b9050919050565b7f4f6e6c792063616c6c61626c65206279206f776e657200000000000000000000600082015250565b60006200077c6016836200064f565b9150620007898262000744565b602082019050919050565b60006020820190508181036000830152620007af816200076d565b9050919050565b60805160a05160c051615c4d620007fb60003960008181610d66015261115c015260008181610ce10152613271015260008181610d2601526111c40152615c4d6000f3fe60806040526004361061020f5760003560e01c80638b673e7a11610118578063aefb212f116100a0578063dac83d291161006f578063dac83d2914610748578063dc311dd314610771578063dcab3dcf146107b2578063e72f6e30146107dd578063f2fde38b146108065761020f565b8063aefb212f14610690578063b2a7cac5146106cd578063bec4c08c146106f6578063cb6317971461071f5761020f565b80639b1c385e116100e75780639b1c385e146105ab5780639d40a6fd146105e8578063a21a23e414610613578063a4c0ed361461063e578063aa433aff146106675761020f565b80638b673e7a146105105780638da5cb5b14610527578063953e9c751461055257806395b55cfc1461058f5761020f565b806341af6c871161019b57806372e9d5651161016a57806372e9d5651461045157806379ba50971461047c578063808974ff146104935780638402595e146104bc57806386fe91c7146104e55761020f565b806341af6c871461039757806351cff8d9146103d457806364d51a2a146103fd57806365982744146104285761020f565b806313478329116101e257806313478329146102c257806318e3dd27146102ed5780631b6b6d23146103185780631eebc117146103435780632f622e6b1461036e5761020f565b8063088070f51461021457806308e3898e146102475780630ae0954014610270578063115e3c0d14610299575b600080fd5b34801561022057600080fd5b5061022961082f565b60405161023e999897969594939291906143d8565b60405180910390f35b34801561025357600080fd5b5061026e60048036038101906102699190614666565b6108f0565b005b34801561027c57600080fd5b50610297600480360381019061029291906146d5565b610e5a565b005b3480156102a557600080fd5b506102c060048036038101906102bb9190614715565b610f71565b005b3480156102ce57600080fd5b506102d761115a565b6040516102e4919061476e565b60405180910390f35b3480156102f957600080fd5b5061030261117e565b60405161030f91906147b0565b60405180910390f35b34801561032457600080fd5b5061032d61119c565b60405161033a919061482a565b60405180910390f35b34801561034f57600080fd5b506103586111c2565b60405161036591906147b0565b60405180910390f35b34801561037a57600080fd5b5061039560048036038101906103909190614883565b6111e6565b005b3480156103a357600080fd5b506103be60048036038101906103b991906148b0565b6112d4565b6040516103cb91906148dd565b60405180910390f35b3480156103e057600080fd5b506103fb60048036038101906103f691906148f8565b611308565b005b34801561040957600080fd5b5061041261150e565b60405161041f9190614925565b60405180910390f35b34801561043457600080fd5b5061044f600480360381019061044a9190614940565b611513565b005b34801561045d57600080fd5b50610466611629565b60405161047391906149a1565b60405180910390f35b34801561048857600080fd5b5061049161164f565b005b34801561049f57600080fd5b506104ba60048036038101906104b591906146d5565b6117e4565b005b3480156104c857600080fd5b506104e360048036038101906104de9190614883565b611844565b005b3480156104f157600080fd5b506104fa6119c1565b60405161050791906147b0565b60405180910390f35b34801561051c57600080fd5b506105256119df565b005b34801561053357600080fd5b5061053c611bd6565b60405161054991906149cb565b60405180910390f35b34801561055e57600080fd5b50610579600480360381019061057491906146d5565b611bff565b60405161058691906148dd565b60405180910390f35b6105a960048036038101906105a491906148b0565b611c6a565b005b3480156105b757600080fd5b506105d260048036038101906105cd9190614a0a565b611dfd565b6040516105df9190614a62565b60405180910390f35b3480156105f457600080fd5b506105fd61212a565b60405161060a9190614aa0565b60405180910390f35b34801561061f57600080fd5b50610628612144565b6040516106359190614a62565b60405180910390f35b34801561064a57600080fd5b5061066560048036038101906106609190614b16565b61247c565b005b34801561067357600080fd5b5061068e600480360381019061068991906148b0565b6126ea565b005b34801561069c57600080fd5b506106b760048036038101906106b29190614715565b612744565b6040516106c49190614c48565b60405180910390f35b3480156106d957600080fd5b506106f460048036038101906106ef91906148b0565b612878565b005b34801561070257600080fd5b5061071d600480360381019061071891906146d5565b612a89565b005b34801561072b57600080fd5b50610746600480360381019061074191906146d5565b612c27565b005b34801561075457600080fd5b5061076f600480360381019061076a91906146d5565b612fe6565b005b34801561077d57600080fd5b50610798600480360381019061079391906148b0565b6130ea565b6040516107a9959493929190614d28565b60405180910390f35b3480156107be57600080fd5b506107c761326f565b6040516107d491906147b0565b60405180910390f35b3480156107e957600080fd5b5061080460048036038101906107ff91906148f8565b613293565b005b34801561081257600080fd5b5061082d600480360381019061082891906148f8565b613565565b005b600c8060000160009054906101000a900461ffff16908060000160029054906101000a900463ffffffff16908060000160069054906101000a900460ff16908060000160079054906101000a900463ffffffff169080600001600b9054906101000a900463ffffffff169080600001600f9054906101000a900463ffffffff16908060000160139054906101000a900463ffffffff16908060000160179054906101000a900460ff16908060000160189054906101000a900460ff16905089565b60005a90506000601060008681526020019081526020016000206000015403610945576040517f41abc80100000000000000000000000000000000000000000000000000000000815260040160405180910390fd5b600060106000868152602001908152602001600020604051806080016040529081600082015481526020016001820160009054906101000a900463ffffffff1663ffffffff1663ffffffff1681526020016001820160049054906101000a900463ffffffff1663ffffffff1663ffffffff1681526020016002820180546109cb90614db1565b80601f01602080910402602001604051908101604052809291908181526020018280546109f790614db1565b8015610a445780601f10610a1957610100808354040283529160200191610a44565b820191906000526020600020905b815481529060010190602001808311610a2757829003601f168201915b50505050508152505090506000835103610b2657806040015163ffffffff1667ffffffffffffffff811115610a7c57610a7b614523565b5b604051908082528060200260200182016040528015610aaa5781602001602082028036833780820191505090505b50925060005b816040015163ffffffff16811015610b20578581604051602001610ad5929190614de2565b6040516020818303038152906040528051906020012060001c848281518110610b0157610b00614e0b565b5b6020026020010181815250508080610b1890614e69565b915050610ab0565b50610b6b565b806040015163ffffffff16835114610b6a576040517f3f3df5b600000000000000000000000000000000000000000000000000000000815260040160405180910390fd5b5b600080631fe543e360e01b8786604051602401610b89929190614eb1565b604051602081830303815290604052907bffffffffffffffffffffffffffffffffffffffffffffffffffffffff19166020820180517bffffffffffffffffffffffffffffffffffffffffffffffffffffffff838183161783525050505090506001600c60000160066101000a81548160ff02191690831515021790555060008673ffffffffffffffffffffffffffffffffffffffff16846020015163ffffffff1683604051610c389190614f52565b60006040518083038160008787f1925050503d8060008114610c76576040519150601f19603f3d011682016040523d82523d6000602084013e610c7b565b606091505b505090506000600c60000160066101000a81548160ff0219169083151502179055506000600185606001516001876060015151610cb89190614f69565b81518110610cc957610cc8614e0b565b5b602001015160f81c60f81b60f81c60ff1614905060007f00000000000000000000000000000000000000000000000000000000000000006bffffffffffffffffffffffff165a88610d1a9190614f69565b610d249190614f9d565b7f00000000000000000000000000000000000000000000000000000000000000006bffffffffffffffffffffffff16610d5d9190614fdf565b905081610da6577f000000000000000000000000000000000000000000000000000000000000000081670de0b6b3a7640000610d999190614f9d565b610da39190615042565b90505b6000819050601060008c81526020019081526020016000206000808201600090556001820160006101000a81549063ffffffff02191690556001820160046101000a81549063ffffffff0219169055600282016000610e059190614248565b505086600001518b7faeb4b4786571e184246d39587f659abf0e26f41f6a3358692250382c0cdb47b78d8487896000604051610e45959493929190615073565b60405180910390a35050505050505050505050565b81610e6481613579565b610e6c613631565b600080610e788561367d565b9150915060008473ffffffffffffffffffffffffffffffffffffffff16826bffffffffffffffffffffffff16604051610eb0906150ec565b60006040518083038185875af1925050503d8060008114610eed576040519150601f19603f3d011682016040523d82523d6000602084013e610ef2565b606091505b5050905080610f2d576040517f950b247900000000000000000000000000000000000000000000000000000000815260040160405180910390fd5b857f8c74ce8b8cf87f5eb001275c8be27eb34ea2b62bfab6814fcc62192bb63e81c4868585604051610f6193929190615132565b60405180910390a2505050505050565b600073ffffffffffffffffffffffffffffffffffffffff166005600084815260200190815260200160002060000160009054906101000a900473ffffffffffffffffffffffffffffffffffffffff1673ffffffffffffffffffffffffffffffffffffffff160361100d576040517f1f6a65b600000000000000000000000000000000000000000000000000000000815260040160405180910390fd5b60006006600084815260200190815260200160002060000160009054906101000a90046bffffffffffffffffffffffff166bffffffffffffffffffffffff169050816006600085815260200190815260200160002060000160008282829054906101000a90046bffffffffffffffffffffffff1661108b9190615169565b92506101000a8154816bffffffffffffffffffffffff02191690836bffffffffffffffffffffffff16021790555081600a60008282829054906101000a90046bffffffffffffffffffffffff166110e29190615169565b92506101000a8154816bffffffffffffffffffffffff02191690836bffffffffffffffffffffffff160217905550827f1ced9348ff549fceab2ac57cd3a9de38edaaab274b725ee82c23e8fc8c4eec7a82848461113f9190614fdf565b60405161114d929190614de2565b60405180910390a2505050565b7f000000000000000000000000000000000000000000000000000000000000000081565b600a600c9054906101000a90046bffffffffffffffffffffffff1681565b600260009054906101000a900473ffffffffffffffffffffffffffffffffffffffff1681565b7f000000000000000000000000000000000000000000000000000000000000000081565b6111ee613631565b6111f66139d7565b6000600b600c9054906101000a90046bffffffffffffffffffffffff16905061122f6000826bffffffffffffffffffffffff1611613a67565b6000600b600c6101000a8154816bffffffffffffffffffffffff02191690836bffffffffffffffffffffffff16021790555080600a600c8282829054906101000a90046bffffffffffffffffffffffff1661128a91906151a9565b92506101000a8154816bffffffffffffffffffffffff02191690836bffffffffffffffffffffffff1602179055506112d082826bffffffffffffffffffffffff16613aa1565b5050565b60006040517fd623472500000000000000000000000000000000000000000000000000000000815260040160405180910390fd5b611310613631565b6113186139d7565b600073ffffffffffffffffffffffffffffffffffffffff16600260009054906101000a900473ffffffffffffffffffffffffffffffffffffffff1673ffffffffffffffffffffffffffffffffffffffff16036113a0576040517fc1f0c0a100000000000000000000000000000000000000000000000000000000815260040160405180910390fd5b6000600b60009054906101000a90046bffffffffffffffffffffffff1690506113d96000826bffffffffffffffffffffffff1611613a67565b6000600b60006101000a8154816bffffffffffffffffffffffff02191690836bffffffffffffffffffffffff16021790555080600a60008282829054906101000a90046bffffffffffffffffffffffff1661143491906151a9565b92506101000a8154816bffffffffffffffffffffffff02191690836bffffffffffffffffffffffff16021790555061150a600260009054906101000a900473ffffffffffffffffffffffffffffffffffffffff1673ffffffffffffffffffffffffffffffffffffffff1663a9059cbb84846040518363ffffffff1660e01b81526004016114c29291906151e9565b6020604051808303816000875af11580156114e1573d6000803e3d6000fd5b505050506040513d601f19601f82011682018060405250810190611505919061523e565b613a67565b5050565b606481565b61151b6139d7565b600073ffffffffffffffffffffffffffffffffffffffff16600260009054906101000a900473ffffffffffffffffffffffffffffffffffffffff1673ffffffffffffffffffffffffffffffffffffffff16146115a3576040517f2d118a6e00000000000000000000000000000000000000000000000000000000815260040160405180910390fd5b81600260006101000a81548173ffffffffffffffffffffffffffffffffffffffff021916908373ffffffffffffffffffffffffffffffffffffffff16021790555080600360006101000a81548173ffffffffffffffffffffffffffffffffffffffff021916908373ffffffffffffffffffffffffffffffffffffffff1602179055505050565b600360009054906101000a900473ffffffffffffffffffffffffffffffffffffffff1681565b600160009054906101000a900473ffffffffffffffffffffffffffffffffffffffff1673ffffffffffffffffffffffffffffffffffffffff163373ffffffffffffffffffffffffffffffffffffffff16146116df576040517f08c379a00000000000000000000000000000000000000000000000000000000081526004016116d6906152c8565b60405180910390fd5b60008060009054906101000a900473ffffffffffffffffffffffffffffffffffffffff169050336000806101000a81548173ffffffffffffffffffffffffffffffffffffffff021916908373ffffffffffffffffffffffffffffffffffffffff1602179055506000600160006101000a81548173ffffffffffffffffffffffffffffffffffffffff021916908373ffffffffffffffffffffffffffffffffffffffff1602179055503373ffffffffffffffffffffffffffffffffffffffff168173ffffffffffffffffffffffffffffffffffffffff167f8be0079c531659141344cd1fd0a4f28419497f9722a3daafe3b4186f6b6457e060405160405180910390a350565b6117ec613631565b6118408282600067ffffffffffffffff81111561180c5761180b614523565b5b60405190808252806020026020018201604052801561183a5781602001602082028036833780820191505090505b506108f0565b5050565b61184c6139d7565b60004790506000600a600c9054906101000a90046bffffffffffffffffffffffff166bffffffffffffffffffffffff169050818111156118c55780826040517fa99da3020000000000000000000000000000000000000000000000000000000081526004016118bc929190614de2565b60405180910390fd5b818110156119bc57600081836118db9190614f69565b905060008473ffffffffffffffffffffffffffffffffffffffff1682604051611903906150ec565b60006040518083038185875af1925050503d8060008114611940576040519150601f19603f3d011682016040523d82523d6000602084013e611945565b606091505b5050905080611980576040517f950b247900000000000000000000000000000000000000000000000000000000815260040160405180910390fd5b7f4aed7c8eed0496c8c19ea2681fcca25741c1602342e38b045d9f1e8e905d2e9c85836040516119b1929190615309565b60405180910390a150505b505050565b600a60009054906101000a90046bffffffffffffffffffffffff1681565b6119e76139d7565b604051806101200160405280600061ffff168152602001600063ffffffff168152602001600015158152602001600063ffffffff168152602001600063ffffffff168152602001600063ffffffff168152602001600063ffffffff168152602001600060ff168152602001600060ff16815250600c60008201518160000160006101000a81548161ffff021916908361ffff16021790555060208201518160000160026101000a81548163ffffffff021916908363ffffffff16021790555060408201518160000160066101000a81548160ff02191690831515021790555060608201518160000160076101000a81548163ffffffff021916908363ffffffff160217905550608082015181600001600b6101000a81548163ffffffff021916908363ffffffff16021790555060a082015181600001600f6101000a81548163ffffffff021916908363ffffffff16021790555060c08201518160000160136101000a81548163ffffffff021916908363ffffffff16021790555060e08201518160000160176101000a81548160ff021916908360ff1602179055506101008201518160000160186101000a81548160ff021916908360ff1602179055509050507f4b2974a542484cba2783812ff8033f7fc682cac2fe0905c28c5e27869b3155be60405160405180910390a1565b60008060009054906101000a900473ffffffffffffffffffffffffffffffffffffffff16905090565b6000600460008373ffffffffffffffffffffffffffffffffffffffff1673ffffffffffffffffffffffffffffffffffffffff168152602001908152602001600020600084815260200190815260200160002060000160009054906101000a900460ff16905092915050565b611c72613631565b611cb16005600083815260200190815260200160002060000160009054906101000a900473ffffffffffffffffffffffffffffffffffffffff16613b49565b600060066000838152602001908152602001600020600001600c9054906101000a90046bffffffffffffffffffffffff166bffffffffffffffffffffffff1690503460066000848152602001908152602001600020600001600c8282829054906101000a90046bffffffffffffffffffffffff16611d2f9190615169565b92506101000a8154816bffffffffffffffffffffffff02191690836bffffffffffffffffffffffff16021790555034600a600c8282829054906101000a90046bffffffffffffffffffffffff16611d869190615169565b92506101000a8154816bffffffffffffffffffffffff02191690836bffffffffffffffffffffffff160217905550817f7603b205d03651ee812f803fccde89f1012e545a9c99f0abfea9cedd0fd8e902823484611de39190614fdf565b604051611df1929190614de2565b60405180910390a25050565b6000611e07613631565b816020013533611e178282611bff565b611e5a5781816040517f79bfd401000000000000000000000000000000000000000000000000000000008152600401611e51929190615332565b60405180910390fd5b600084602001359050600073ffffffffffffffffffffffffffffffffffffffff166005600083815260200190815260200160002060000160009054906101000a900473ffffffffffffffffffffffffffffffffffffffff1673ffffffffffffffffffffffffffffffffffffffff1603611eff576040517f1f6a65b600000000000000000000000000000000000000000000000000000000815260040160405180910390fd5b6000600e6000815480929190611f1490614e69565b9190505590506000600f6000815480929190611f2f90614e69565b9190505590506000611f57611f52898060a00190611f4d919061536a565b613bb2565b613caa565b9050604051806080016040528089602001358152602001896060016020810190611f8191906153f9565b63ffffffff168152602001896080016020810190611f9f91906153f9565b63ffffffff168152602001898060a00190611fba919061536a565b8080601f016020809104026020016040519081016040528093929190818152602001838380828437600081840152601f19601f82011690508083019250505050505050815250601060008581526020019081526020016000206000820151816000015560208201518160010160006101000a81548163ffffffff021916908363ffffffff16021790555060408201518160010160046101000a81548163ffffffff021916908363ffffffff160217905550606082015181600201908161208091906155c8565b509050503373ffffffffffffffffffffffffffffffffffffffff16886020013589600001357feb0e3652e0f44f417695e6e90f2f42c99b65cd7169074c5a654b16b9748c3a4e86868d60400160208101906120db91906156c6565b8e60600160208101906120ee91906153f9565b8f608001602081019061210191906153f9565b896040516121149695949392919061573d565b60405180910390a4829650505050505050919050565b600760009054906101000a900467ffffffffffffffff1681565b600061214e613631565b6000600760009054906101000a900467ffffffffffffffff169050336001436121779190614f69565b40308360405160200161218d949392919061584e565b6040516020818303038152906040528051906020012060001c91506001816121b5919061589c565b600760006101000a81548167ffffffffffffffff021916908367ffffffffffffffff16021790555060008067ffffffffffffffff8111156121f9576121f8614523565b5b6040519080825280602002602001820160405280156122275781602001602082028036833780820191505090505b509050604051806060016040528060006bffffffffffffffffffffffff16815260200160006bffffffffffffffffffffffff168152602001600067ffffffffffffffff168152506006600085815260200190815260200160002060008201518160000160006101000a8154816bffffffffffffffffffffffff02191690836bffffffffffffffffffffffff160217905550602082015181600001600c6101000a8154816bffffffffffffffffffffffff02191690836bffffffffffffffffffffffff16021790555060408201518160000160186101000a81548167ffffffffffffffff021916908367ffffffffffffffff16021790555090505060405180606001604052803373ffffffffffffffffffffffffffffffffffffffff168152602001600073ffffffffffffffffffffffffffffffffffffffff168152602001828152506005600085815260200190815260200160002060008201518160000160006101000a81548173ffffffffffffffffffffffffffffffffffffffff021916908373ffffffffffffffffffffffffffffffffffffffff16021790555060208201518160010160006101000a81548173ffffffffffffffffffffffffffffffffffffffff021916908373ffffffffffffffffffffffffffffffffffffffff1602179055506040820151816002019080519060200190612426929190614288565b5090505061243e836008613d4290919063ffffffff16565b50827f1d3015d7ba850fa198dc7b1a3f5d42779313a681035f77c8c03764c61005518d3360405161246f91906149cb565b60405180910390a2505090565b612484613631565b600260009054906101000a900473ffffffffffffffffffffffffffffffffffffffff1673ffffffffffffffffffffffffffffffffffffffff163373ffffffffffffffffffffffffffffffffffffffff161461250b576040517f44b0e3c300000000000000000000000000000000000000000000000000000000815260040160405180910390fd5b60208282905014612548576040517f8129bbcd00000000000000000000000000000000000000000000000000000000815260040160405180910390fd5b6000828281019061255991906148b0565b905061259a6005600083815260200190815260200160002060000160009054906101000a900473ffffffffffffffffffffffffffffffffffffffff16613b49565b60006006600083815260200190815260200160002060000160009054906101000a90046bffffffffffffffffffffffff166bffffffffffffffffffffffff169050846006600084815260200190815260200160002060000160008282829054906101000a90046bffffffffffffffffffffffff166126189190615169565b92506101000a8154816bffffffffffffffffffffffff02191690836bffffffffffffffffffffffff16021790555084600a60008282829054906101000a90046bffffffffffffffffffffffff1661266f9190615169565b92506101000a8154816bffffffffffffffffffffffff02191690836bffffffffffffffffffffffff160217905550817f1ced9348ff549fceab2ac57cd3a9de38edaaab274b725ee82c23e8fc8c4eec7a8287846126cc9190614fdf565b6040516126da929190614de2565b60405180910390a2505050505050565b6126f26139d7565b60006005600083815260200190815260200160002060000160009054906101000a900473ffffffffffffffffffffffffffffffffffffffff16905061273681613b49565b6127408282613d5c565b5050565b606060006127526008613ef0565b905080841061278d576040517f1390f2a100000000000000000000000000000000000000000000000000000000815260040160405180910390fd5b6000838561279b9190614fdf565b9050818111806127ab5750600084145b6127b557806127b7565b815b9050600085826127c79190614f69565b90508067ffffffffffffffff8111156127e3576127e2614523565b5b6040519080825280602002602001820160405280156128115781602001602082028036833780820191505090505b50935060005b8181101561286e5761283e878261282e9190614fdf565b6008613f0590919063ffffffff16565b85828151811061285157612850614e0b565b5b6020026020010181815250508061286790614e69565b9050612817565b5050505092915050565b612880613631565b60006005600083815260200190815260200160002060000160009054906101000a900473ffffffffffffffffffffffffffffffffffffffff1690506128c481613b49565b3373ffffffffffffffffffffffffffffffffffffffff166005600084815260200190815260200160002060010160009054906101000a900473ffffffffffffffffffffffffffffffffffffffff1673ffffffffffffffffffffffffffffffffffffffff16146129a0576005600083815260200190815260200160002060010160009054906101000a900473ffffffffffffffffffffffffffffffffffffffff166040517fd084e97500000000000000000000000000000000000000000000000000000000815260040161299791906149cb565b60405180910390fd5b336005600084815260200190815260200160002060000160006101000a81548173ffffffffffffffffffffffffffffffffffffffff021916908373ffffffffffffffffffffffffffffffffffffffff16021790555060006005600084815260200190815260200160002060010160006101000a81548173ffffffffffffffffffffffffffffffffffffffff021916908373ffffffffffffffffffffffffffffffffffffffff160217905550817fd4114ab6e9af9f597c52041f32d62dc57c5c4e4c0d4427006069635e216c93868233604051612a7d9291906158d8565b60405180910390a25050565b81612a9381613579565b612a9b613631565b6000600460008473ffffffffffffffffffffffffffffffffffffffff1673ffffffffffffffffffffffffffffffffffffffff168152602001908152602001600020600085815260200190815260200160002090508060000160009054906101000a900460ff1615612b0c5750612c22565b6000600560008681526020019081526020016000206002019050606461ffff16818054905003612b68576040517f05a48e0f00000000000000000000000000000000000000000000000000000000815260040160405180910390fd5b60018260000160006101000a81548160ff02191690831515021790555080849080600181540180825580915050600190039060005260206000200160009091909190916101000a81548173ffffffffffffffffffffffffffffffffffffffff021916908373ffffffffffffffffffffffffffffffffffffffff160217905550847f1e980d04aa7648e205713e5e8ea3808672ac163d10936d36f91b2c88ac1575e185604051612c1791906149cb565b60405180910390a250505b505050565b81612c3181613579565b8282612c3d8282611bff565b612c805781816040517f79bfd401000000000000000000000000000000000000000000000000000000008152600401612c77929190615332565b60405180910390fd5b612c88613631565b600460008573ffffffffffffffffffffffffffffffffffffffff1673ffffffffffffffffffffffffffffffffffffffff168152602001908152602001600020600086815260200190815260200160002060000160009054906101000a900460ff16612d2c5784846040517f79bfd401000000000000000000000000000000000000000000000000000000008152600401612d23929190615332565b60405180910390fd5b600060056000878152602001908152602001600020600201805480602002602001604051908101604052809291908181526020018280548015612dc457602002820191906000526020600020905b8160009054906101000a900473ffffffffffffffffffffffffffffffffffffffff1673ffffffffffffffffffffffffffffffffffffffff1681526020019060010190808311612d7a575b50505050509050600060018251612ddb9190614f69565b905060005b8251811015612f38578673ffffffffffffffffffffffffffffffffffffffff16838281518110612e1357612e12614e0b565b5b602002602001015173ffffffffffffffffffffffffffffffffffffffff1603612f27576000838381518110612e4b57612e4a614e0b565b5b6020026020010151905080600560008b81526020019081526020016000206002018381548110612e7e57612e7d614e0b565b5b9060005260206000200160006101000a81548173ffffffffffffffffffffffffffffffffffffffff021916908373ffffffffffffffffffffffffffffffffffffffff160217905550600560008a8152602001908152602001600020600201805480612eec57612eeb615901565b5b6001900381819060005260206000200160006101000a81549073ffffffffffffffffffffffffffffffffffffffff0219169055905550612f38565b80612f3190614e69565b9050612de0565b506000600460008873ffffffffffffffffffffffffffffffffffffffff1673ffffffffffffffffffffffffffffffffffffffff168152602001908152602001600020600089815260200190815260200160002060000160006101000a81548160ff021916908315150217905550867f32158c6058347c1601b2d12bc696ac6901d8a9a9aa3ba10c27ab0a983e8425a787604051612fd591906149cb565b60405180910390a250505050505050565b81612ff081613579565b612ff8613631565b60006005600085815260200190815260200160002090508273ffffffffffffffffffffffffffffffffffffffff168160010160009054906101000a900473ffffffffffffffffffffffffffffffffffffffff1673ffffffffffffffffffffffffffffffffffffffff16146130e457828160010160006101000a81548173ffffffffffffffffffffffffffffffffffffffff021916908373ffffffffffffffffffffffffffffffffffffffff160217905550837f21a4dad170a6bf476c31bbcf4a16628295b0e450672eec25d7c93308e05344a133856040516130db9291906158d8565b60405180910390a25b50505050565b60008060008060606005600087815260200190815260200160002060000160009054906101000a900473ffffffffffffffffffffffffffffffffffffffff16915061313482613b49565b6006600087815260200190815260200160002060000160009054906101000a90046bffffffffffffffffffffffff1660066000888152602001908152602001600020600001600c9054906101000a90046bffffffffffffffffffffffff166006600089815260200190815260200160002060000160189054906101000a900467ffffffffffffffff1684600560008b81526020019081526020016000206002018080548060200260200160405190810160405280929190818152602001828054801561325557602002820191906000526020600020905b8160009054906101000a900473ffffffffffffffffffffffffffffffffffffffff1673ffffffffffffffffffffffffffffffffffffffff168152602001906001019080831161320b575b505050505090509450945094509450945091939590929450565b7f000000000000000000000000000000000000000000000000000000000000000081565b61329b6139d7565b600073ffffffffffffffffffffffffffffffffffffffff16600260009054906101000a900473ffffffffffffffffffffffffffffffffffffffff1673ffffffffffffffffffffffffffffffffffffffff1603613323576040517fc1f0c0a100000000000000000000000000000000000000000000000000000000815260040160405180910390fd5b6000600260009054906101000a900473ffffffffffffffffffffffffffffffffffffffff1673ffffffffffffffffffffffffffffffffffffffff166370a08231306040518263ffffffff1660e01b815260040161338091906149cb565b602060405180830381865afa15801561339d573d6000803e3d6000fd5b505050506040513d601f19601f820116820180604052508101906133c19190615945565b90506000600a60009054906101000a90046bffffffffffffffffffffffff166bffffffffffffffffffffffff169050818111156134375780826040517fa99da30200000000000000000000000000000000000000000000000000000000815260040161342e929190614de2565b60405180910390fd5b81811015613560576000818361344d9190614f69565b9050600260009054906101000a900473ffffffffffffffffffffffffffffffffffffffff1673ffffffffffffffffffffffffffffffffffffffff1663a9059cbb85836040518363ffffffff1660e01b81526004016134ac929190615972565b6020604051808303816000875af11580156134cb573d6000803e3d6000fd5b505050506040513d601f19601f820116820180604052508101906134ef919061523e565b613525576040517f7c07fc4c00000000000000000000000000000000000000000000000000000000815260040160405180910390fd5b7f59bfc682b673f8cbf945f1e454df9334834abf7dfe7f92237ca29ecb9b4366008482604051613556929190615972565b60405180910390a1505b505050565b61356d6139d7565b61357681613f1f565b50565b60006005600083815260200190815260200160002060000160009054906101000a900473ffffffffffffffffffffffffffffffffffffffff1690506135bd81613b49565b8073ffffffffffffffffffffffffffffffffffffffff163373ffffffffffffffffffffffffffffffffffffffff161461362d57806040517fd8a3fb5200000000000000000000000000000000000000000000000000000000815260040161362491906149cb565b60405180910390fd5b5050565b600c60000160069054906101000a900460ff161561367b576040517fed3ba6a600000000000000000000000000000000000000000000000000000000815260040160405180910390fd5b565b60008060006005600085815260200190815260200160002060020190506006600085815260200190815260200160002060000160009054906101000a90046bffffffffffffffffffffffff16925060066000858152602001908152602001600020600001600c9054906101000a90046bffffffffffffffffffffffff16915060008180549050905060005b818110156137fb576004600084838154811061372757613726614e0b565b5b9060005260206000200160009054906101000a900473ffffffffffffffffffffffffffffffffffffffff1673ffffffffffffffffffffffffffffffffffffffff1673ffffffffffffffffffffffffffffffffffffffff1681526020019081526020016000206000878152602001908152602001600020600080820160006101000a81549060ff02191690556000820160016101000a81549067ffffffffffffffff02191690556000820160096101000a81549067ffffffffffffffff02191690555050806137f490614e69565b9050613708565b5060056000868152602001908152602001600020600080820160006101000a81549073ffffffffffffffffffffffffffffffffffffffff02191690556001820160006101000a81549073ffffffffffffffffffffffffffffffffffffffff021916905560028201600061386e9190614312565b505060066000868152602001908152602001600020600080820160006101000a8154906bffffffffffffffffffffffff021916905560008201600c6101000a8154906bffffffffffffffffffffffff02191690556000820160186101000a81549067ffffffffffffffff021916905550506138f385600861404b90919063ffffffff16565b506000846bffffffffffffffffffffffff16146139625783600a60008282829054906101000a90046bffffffffffffffffffffffff1661393391906151a9565b92506101000a8154816bffffffffffffffffffffffff02191690836bffffffffffffffffffffffff1602179055505b6000836bffffffffffffffffffffffff16146139d05782600a600c8282829054906101000a90046bffffffffffffffffffffffff166139a191906151a9565b92506101000a8154816bffffffffffffffffffffffff02191690836bffffffffffffffffffffffff1602179055505b5050915091565b60008054906101000a900473ffffffffffffffffffffffffffffffffffffffff1673ffffffffffffffffffffffffffffffffffffffff163373ffffffffffffffffffffffffffffffffffffffff1614613a65576040517f08c379a0000000000000000000000000000000000000000000000000000000008152600401613a5c906159e7565b60405180910390fd5b565b80613a9e576040517ff4d678b800000000000000000000000000000000000000000000000000000000815260040160405180910390fd5b50565b60008273ffffffffffffffffffffffffffffffffffffffff1682604051613ac7906150ec565b60006040518083038185875af1925050503d8060008114613b04576040519150601f19603f3d011682016040523d82523d6000602084013e613b09565b606091505b5050905080613b44576040517f950b247900000000000000000000000000000000000000000000000000000000815260040160405180910390fd5b505050565b600073ffffffffffffffffffffffffffffffffffffffff168173ffffffffffffffffffffffffffffffffffffffff1603613baf576040517f1f6a65b600000000000000000000000000000000000000000000000000000000815260040160405180910390fd5b50565b613bba614333565b60008383905003613bde576040518060200160405280600015158152509050613ca4565b7f92fd13387c7fe7befbc38d303d6468778fb9731bc4583f17d92989c6fcfdeaaa7bffffffffffffffffffffffffffffffffffffffffffffffffffffffff1916838390613c2b9190615a3e565b7bffffffffffffffffffffffffffffffffffffffffffffffffffffffff191614613c81576040517f5247fdce00000000000000000000000000000000000000000000000000000000815260040160405180910390fd5b82826004908092613c9493929190615aa7565b810190613ca19190615b38565b90505b92915050565b60607f92fd13387c7fe7befbc38d303d6468778fb9731bc4583f17d92989c6fcfdeaaa82604051602401613cde9190615b90565b604051602081830303815290604052907bffffffffffffffffffffffffffffffffffffffffffffffffffffffff19166020820180517bffffffffffffffffffffffffffffffffffffffffffffffffffffffff83818316178352505050509050919050565b6000613d54836000018360001b614065565b905092915050565b600080613d688461367d565b91509150600073ffffffffffffffffffffffffffffffffffffffff16600260009054906101000a900473ffffffffffffffffffffffffffffffffffffffff1673ffffffffffffffffffffffffffffffffffffffff1614158015613dda57506000826bffffffffffffffffffffffff1614155b15613e9657613e95600260009054906101000a900473ffffffffffffffffffffffffffffffffffffffff1673ffffffffffffffffffffffffffffffffffffffff1663a9059cbb85856bffffffffffffffffffffffff166040518363ffffffff1660e01b8152600401613e4d929190615972565b6020604051808303816000875af1158015613e6c573d6000803e3d6000fd5b505050506040513d601f19601f82011682018060405250810190613e90919061523e565b613a67565b5b613eae83826bffffffffffffffffffffffff16613aa1565b837f8c74ce8b8cf87f5eb001275c8be27eb34ea2b62bfab6814fcc62192bb63e81c4848484604051613ee293929190615132565b60405180910390a250505050565b6000613efe826000016140d5565b9050919050565b6000613f1483600001836140e6565b60001c905092915050565b3373ffffffffffffffffffffffffffffffffffffffff168173ffffffffffffffffffffffffffffffffffffffff1603613f8d576040517f08c379a0000000000000000000000000000000000000000000000000000000008152600401613f8490615bf7565b60405180910390fd5b80600160006101000a81548173ffffffffffffffffffffffffffffffffffffffff021916908373ffffffffffffffffffffffffffffffffffffffff1602179055508073ffffffffffffffffffffffffffffffffffffffff1660008054906101000a900473ffffffffffffffffffffffffffffffffffffffff1673ffffffffffffffffffffffffffffffffffffffff167fed8889f560326eb138920d842192f0eb3dd22b4f139c87a2c57538e05bae127860405160405180910390a350565b600061405d836000018360001b614111565b905092915050565b60006140718383614225565b6140ca5782600001829080600181540180825580915050600190039060005260206000200160009091909190915055826000018054905083600101600084815260200190815260200160002081905550600190506140cf565b600090505b92915050565b600081600001805490509050919050565b60008260000182815481106140fe576140fd614e0b565b5b9060005260206000200154905092915050565b600080836001016000848152602001908152602001600020549050600081146142195760006001826141439190614f69565b905060006001866000018054905061415b9190614f69565b90508181146141ca57600086600001828154811061417c5761417b614e0b565b5b90600052602060002001549050808760000184815481106141a05761419f614e0b565b5b90600052602060002001819055508387600101600083815260200190815260200160002081905550505b856000018054806141de576141dd615901565b5b60019003818190600052602060002001600090559055856001016000868152602001908152602001600020600090556001935050505061421f565b60009150505b92915050565b600080836001016000848152602001908152602001600020541415905092915050565b50805461425490614db1565b6000825580601f106142665750614285565b601f0160209004906000526020600020908101906142849190614348565b5b50565b828054828255906000526020600020908101928215614301579160200282015b828111156143005782518260006101000a81548173ffffffffffffffffffffffffffffffffffffffff021916908373ffffffffffffffffffffffffffffffffffffffff160217905550916020019190600101906142a8565b5b50905061430e9190614348565b5090565b50805460008255906000526020600020908101906143309190614348565b50565b60405180602001604052806000151581525090565b5b80821115614361576000816000905550600101614349565b5090565b600061ffff82169050919050565b61437c81614365565b82525050565b600063ffffffff82169050919050565b61439b81614382565b82525050565b60008115159050919050565b6143b6816143a1565b82525050565b600060ff82169050919050565b6143d2816143bc565b82525050565b6000610120820190506143ee600083018c614373565b6143fb602083018b614392565b614408604083018a6143ad565b6144156060830189614392565b6144226080830188614392565b61442f60a0830187614392565b61443c60c0830186614392565b61444960e08301856143c9565b6144576101008301846143c9565b9a9950505050505050505050565b6000604051905090565b600080fd5b600080fd5b6000819050919050565b61448c81614479565b811461449757600080fd5b50565b6000813590506144a981614483565b92915050565b600073ffffffffffffffffffffffffffffffffffffffff82169050919050565b60006144da826144af565b9050919050565b6144ea816144cf565b81146144f557600080fd5b50565b600081359050614507816144e1565b92915050565b600080fd5b6000601f19601f8301169050919050565b7f4e487b7100000000000000000000000000000000000000000000000000000000600052604160045260246000fd5b61455b82614512565b810181811067ffffffffffffffff8211171561457a57614579614523565b5b80604052505050565b600061458d614465565b90506145998282614552565b919050565b600067ffffffffffffffff8211156145b9576145b8614523565b5b602082029050602081019050919050565b600080fd5b60006145e26145dd8461459e565b614583565b90508083825260208201905060208402830185811115614605576146046145ca565b5b835b8181101561462e578061461a888261449a565b845260208401935050602081019050614607565b5050509392505050565b600082601f83011261464d5761464c61450d565b5b813561465d8482602086016145cf565b91505092915050565b60008060006060848603121561467f5761467e61446f565b5b600061468d8682870161449a565b935050602061469e868287016144f8565b925050604084013567ffffffffffffffff8111156146bf576146be614474565b5b6146cb86828701614638565b9150509250925092565b600080604083850312156146ec576146eb61446f565b5b60006146fa8582860161449a565b925050602061470b858286016144f8565b9150509250929050565b6000806040838503121561472c5761472b61446f565b5b600061473a8582860161449a565b925050602061474b8582860161449a565b9150509250929050565b6000819050919050565b61476881614755565b82525050565b6000602082019050614783600083018461475f565b92915050565b60006bffffffffffffffffffffffff82169050919050565b6147aa81614789565b82525050565b60006020820190506147c560008301846147a1565b92915050565b6000819050919050565b60006147f06147eb6147e6846144af565b6147cb565b6144af565b9050919050565b6000614802826147d5565b9050919050565b6000614814826147f7565b9050919050565b61482481614809565b82525050565b600060208201905061483f600083018461481b565b92915050565b6000614850826144af565b9050919050565b61486081614845565b811461486b57600080fd5b50565b60008135905061487d81614857565b92915050565b6000602082840312156148995761489861446f565b5b60006148a78482850161486e565b91505092915050565b6000602082840312156148c6576148c561446f565b5b60006148d48482850161449a565b91505092915050565b60006020820190506148f260008301846143ad565b92915050565b60006020828403121561490e5761490d61446f565b5b600061491c848285016144f8565b91505092915050565b600060208201905061493a6000830184614373565b92915050565b600080604083850312156149575761495661446f565b5b6000614965858286016144f8565b9250506020614976858286016144f8565b9150509250929050565b600061498b826147f7565b9050919050565b61499b81614980565b82525050565b60006020820190506149b66000830184614992565b92915050565b6149c5816144cf565b82525050565b60006020820190506149e060008301846149bc565b92915050565b600080fd5b600060c08284031215614a0157614a006149e6565b5b81905092915050565b600060208284031215614a2057614a1f61446f565b5b600082013567ffffffffffffffff811115614a3e57614a3d614474565b5b614a4a848285016149eb565b91505092915050565b614a5c81614479565b82525050565b6000602082019050614a776000830184614a53565b92915050565b600067ffffffffffffffff82169050919050565b614a9a81614a7d565b82525050565b6000602082019050614ab56000830184614a91565b92915050565b600080fd5b60008083601f840112614ad657614ad561450d565b5b8235905067ffffffffffffffff811115614af357614af2614abb565b5b602083019150836001820283011115614b0f57614b0e6145ca565b5b9250929050565b60008060008060608587031215614b3057614b2f61446f565b5b6000614b3e878288016144f8565b9450506020614b4f8782880161449a565b935050604085013567ffffffffffffffff811115614b7057614b6f614474565b5b614b7c87828801614ac0565b925092505092959194509250565b600081519050919050565b600082825260208201905092915050565b6000819050602082019050919050565b614bbf81614479565b82525050565b6000614bd18383614bb6565b60208301905092915050565b6000602082019050919050565b6000614bf582614b8a565b614bff8185614b95565b9350614c0a83614ba6565b8060005b83811015614c3b578151614c228882614bc5565b9750614c2d83614bdd565b925050600181019050614c0e565b5085935050505092915050565b60006020820190508181036000830152614c628184614bea565b905092915050565b600081519050919050565b600082825260208201905092915050565b6000819050602082019050919050565b614c9f816144cf565b82525050565b6000614cb18383614c96565b60208301905092915050565b6000602082019050919050565b6000614cd582614c6a565b614cdf8185614c75565b9350614cea83614c86565b8060005b83811015614d1b578151614d028882614ca5565b9750614d0d83614cbd565b925050600181019050614cee565b5085935050505092915050565b600060a082019050614d3d60008301886147a1565b614d4a60208301876147a1565b614d576040830186614a91565b614d6460608301856149bc565b8181036080830152614d768184614cca565b90509695505050505050565b7f4e487b7100000000000000000000000000000000000000000000000000000000600052602260045260246000fd5b60006002820490506001821680614dc957607f821691505b602082108103614ddc57614ddb614d82565b5b50919050565b6000604082019050614df76000830185614a53565b614e046020830184614a53565b9392505050565b7f4e487b7100000000000000000000000000000000000000000000000000000000600052603260045260246000fd5b7f4e487b7100000000000000000000000000000000000000000000000000000000600052601160045260246000fd5b6000614e7482614479565b91507fffffffffffffffffffffffffffffffffffffffffffffffffffffffffffffffff8203614ea657614ea5614e3a565b5b600182019050919050565b6000604082019050614ec66000830185614a53565b8181036020830152614ed88184614bea565b90509392505050565b600081519050919050565b600081905092915050565b60005b83811015614f15578082015181840152602081019050614efa565b60008484015250505050565b6000614f2c82614ee1565b614f368185614eec565b9350614f46818560208601614ef7565b80840191505092915050565b6000614f5e8284614f21565b915081905092915050565b6000614f7482614479565b9150614f7f83614479565b9250828203905081811115614f9757614f96614e3a565b5b92915050565b6000614fa882614479565b9150614fb383614479565b9250828202614fc181614479565b91508282048414831517614fd857614fd7614e3a565b5b5092915050565b6000614fea82614479565b9150614ff583614479565b925082820190508082111561500d5761500c614e3a565b5b92915050565b7f4e487b7100000000000000000000000000000000000000000000000000000000600052601260045260246000fd5b600061504d82614479565b915061505883614479565b92508261506857615067615013565b5b828204905092915050565b600060a0820190506150886000830188614a53565b61509560208301876147a1565b6150a260408301866143ad565b6150af60608301856143ad565b6150bc60808301846143ad565b9695505050505050565b50565b60006150d6600083614eec565b91506150e1826150c6565b600082019050919050565b60006150f7826150c9565b9150819050919050565b600061511c61511761511284614789565b6147cb565b614479565b9050919050565b61512c81615101565b82525050565b600060608201905061514760008301866149bc565b6151546020830185615123565b6151616040830184615123565b949350505050565b600061517482614789565b915061517f83614789565b925082820190506bffffffffffffffffffffffff8111156151a3576151a2614e3a565b5b92915050565b60006151b482614789565b91506151bf83614789565b925082820390506bffffffffffffffffffffffff8111156151e3576151e2614e3a565b5b92915050565b60006040820190506151fe60008301856149bc565b61520b6020830184615123565b9392505050565b61521b816143a1565b811461522657600080fd5b50565b60008151905061523881615212565b92915050565b6000602082840312156152545761525361446f565b5b600061526284828501615229565b91505092915050565b600082825260208201905092915050565b7f4d7573742062652070726f706f736564206f776e657200000000000000000000600082015250565b60006152b260168361526b565b91506152bd8261527c565b602082019050919050565b600060208201905081810360008301526152e1816152a5565b9050919050565b60006152f3826147f7565b9050919050565b615303816152e8565b82525050565b600060408201905061531e60008301856152fa565b61532b6020830184614a53565b9392505050565b60006040820190506153476000830185614a53565b61535460208301846149bc565b9392505050565b600080fd5b600080fd5b600080fd5b600080833560016020038436030381126153875761538661535b565b5b80840192508235915067ffffffffffffffff8211156153a9576153a8615360565b5b6020830192506001820236038313156153c5576153c4615365565b5b509250929050565b6153d681614382565b81146153e157600080fd5b50565b6000813590506153f3816153cd565b92915050565b60006020828403121561540f5761540e61446f565b5b600061541d848285016153e4565b91505092915050565b60008190508160005260206000209050919050565b60006020601f8301049050919050565b600082821b905092915050565b6000600883026154887fffffffffffffffffffffffffffffffffffffffffffffffffffffffffffffffff8261544b565b615492868361544b565b95508019841693508086168417925050509392505050565b60006154c56154c06154bb84614479565b6147cb565b614479565b9050919050565b6000819050919050565b6154df836154aa565b6154f36154eb826154cc565b848454615458565b825550505050565b600090565b6155086154fb565b6155138184846154d6565b505050565b5b818110156155375761552c600082615500565b600181019050615519565b5050565b601f82111561557c5761554d81615426565b6155568461543b565b81016020851015615565578190505b6155796155718561543b565b830182615518565b50505b505050565b600082821c905092915050565b600061559f60001984600802615581565b1980831691505092915050565b60006155b8838361558e565b9150826002028217905092915050565b6155d182614ee1565b67ffffffffffffffff8111156155ea576155e9614523565b5b6155f48254614db1565b6155ff82828561553b565b600060209050601f8311600181146156325760008415615620578287015190505b61562a85826155ac565b865550615692565b601f19841661564086615426565b60005b8281101561566857848901518255600182019150602085019450602081019050615643565b868310156156855784890151615681601f89168261558e565b8355505b6001600288020188555050505b505050505050565b6156a381614365565b81146156ae57600080fd5b50565b6000813590506156c08161569a565b92915050565b6000602082840312156156dc576156db61446f565b5b60006156ea848285016156b1565b91505092915050565b600082825260208201905092915050565b600061570f82614ee1565b61571981856156f3565b9350615729818560208601614ef7565b61573281614512565b840191505092915050565b600060c0820190506157526000830189614a53565b61575f6020830188614a53565b61576c6040830187614373565b6157796060830186614392565b6157866080830185614392565b81810360a08301526157988184615704565b9050979650505050505050565b60008160601b9050919050565b60006157bd826157a5565b9050919050565b60006157cf826157b2565b9050919050565b6157e76157e2826144cf565b6157c4565b82525050565b6000819050919050565b6000819050919050565b61581261580d826157ed565b6157f7565b82525050565b60008160c01b9050919050565b600061583082615818565b9050919050565b61584861584382614a7d565b615825565b82525050565b600061585a82876157d6565b60148201915061586a8286615801565b60208201915061587a82856157d6565b60148201915061588a8284615837565b60088201915081905095945050505050565b60006158a782614a7d565b91506158b283614a7d565b9250828201905067ffffffffffffffff8111156158d2576158d1614e3a565b5b92915050565b60006040820190506158ed60008301856149bc565b6158fa60208301846149bc565b9392505050565b7f4e487b7100000000000000000000000000000000000000000000000000000000600052603160045260246000fd5b60008151905061593f81614483565b92915050565b60006020828403121561595b5761595a61446f565b5b600061596984828501615930565b91505092915050565b600060408201905061598760008301856149bc565b6159946020830184614a53565b9392505050565b7f4f6e6c792063616c6c61626c65206279206f776e657200000000000000000000600082015250565b60006159d160168361526b565b91506159dc8261599b565b602082019050919050565b60006020820190508181036000830152615a00816159c4565b9050919050565b600082905092915050565b60007fffffffff0000000000000000000000000000000000000000000000000000000082169050919050565b6000615a4a8383615a07565b82615a558135615a12565b92506004821015615a9557615a907fffffffff000000000000000000000000000000000000000000000000000000008360040360080261544b565b831692505b505092915050565b600080fd5b600080fd5b60008085851115615abb57615aba615a9d565b5b83861115615acc57615acb615aa2565b5b6001850283019150848603905094509492505050565b600080fd5b600081359050615af681615212565b92915050565b600060208284031215615b1257615b11615ae2565b5b615b1c6020614583565b90506000615b2c84828501615ae7565b60008301525092915050565b600060208284031215615b4e57615b4d61446f565b5b6000615b5c84828501615afc565b91505092915050565b615b6e816143a1565b82525050565b602082016000820151615b8a6000850182615b65565b50505050565b6000602082019050615ba56000830184615b74565b92915050565b7f43616e6e6f74207472616e7366657220746f2073656c66000000000000000000600082015250565b6000615be160178361526b565b9150615bec82615bab565b602082019050919050565b60006020820190508181036000830152615c1081615bd4565b905091905056fea2646970667358221220d70275fb1436620d93153bbd5811cc21d64dd343eae989bcb11ae766f0fa48da64736f6c63430008130033",
  "linkReferences": {},
  "deployedLinkReferences": {}
}